S315600000004643464200040156000000000003030018
S315600000100101000001040000000200000000000071
S31560000020000000000000000000000000000000006A
S31560000030000000000000000000000000000000005A
S31560000040000000000104070000000000000000003E
S315600000500000000200000000000000000000000038
S31560000060000000000000000000000000000000002A
S31560000070000000000000000000000000000000001A
S31560000080EB04180A06320426000000000000000097
S3156000009005040424000000000000000000000000C9
S315600000A000000000000000000000000000000000EA
S315600000B006040000000000000000000000000000D0
S315600000C000000000000000000000000000000000CA
S315600000D0200404080000000000000000000000008A
S315600000E000000000000000000000000000000000AA
S315600000F0000000000000000000000000000000009A
S315600001000000000000000000000000000000000089
S3156000011032041808042200000000000000000000FD
S315600001200000000000000000000000000000000069
S31560000130C70400000000000000000000000000008E
S315600001400000000000000000000000000000000049
S315600001500000000000000000000000000000000039
S315600001600000000000000000000000000000000029
S315600001700000000000000000000000000000000019
S315600001800000000000000000000000000000000009
S3156000019000000000000000000000000000000000F9
S315600001A000000000000000000000000000000000E9
S315600001B000000000000000000000000000000000D9
S315600001C000010000001000000000000000000000B8
S315600001D000000000000000000000000000000000B9
S315600001E000000000000000000000000000000000A9
S315600001F00000000000000000000000000000000099
S31560001000D100204100200060000000003010006028
S31560001010201000600010006000000000000000006A
S31560001020000000600000000200000000FFFFFFFFFC
S31560001030D2043041CC03AC04400FC068FFFFFFFF11
S31560001040400FC06CFFFFFFFF400FC070FFFFFFFF48
S31560001050400FC074FFFFFFFF400FC078FFFFFFFF28
S31560001060400FC07CFFFFFFFF400FC080FFFFFFFF08
S31560001070400D803000002001400D8100001E000000
S31560001080400FC01400010D40401F80140000000096
S31560001090401F801800000000401F801C00000000F8
S315600010A0401F802000000000401F802400000000D8
S315600010B0401F802800000000401F802C00000000B8
S315600010C0401F803000000000401F80340000000098
S315600010D0401F803800000000401F803C0000000078
S315600010E0401F804000000000401F80440000000058
S315600010F0401F804800000000401F804C0000000038
S31560001100401F805000000000401F80540000000017
S31560001110401F805800000000401F805C00000000F7
S31560001120401F806000000000401F806400000000D7
S31560001130401F806800000000401F806C00000000B7
S31560001140401F807000000000401F80740000000097
S31560001150401F807800000000401F807C0000000077
S31560001160401F808000000000401F80840000000057
S31560001170401F808800000000401F808C0000000037
S31560001180401F809000000000401F80940000000017
S31560001190401F809800000000401F809C00000000F7
S315600011A0401F80A000000000401F80A400000000D7
S315600011B0401F80A800000000401F80AC00000000B7
S315600011C0401F80B000000010401F80B40000000087
S315600011D0401F80B800000000401F8204000110F923
S315600011E0401F8208000110F9401F820C000110F9AF
S315600011F0401F8210000110F9401F8214000110F98F
S31560001200401F8218000110F9401F821C000110F96E
S31560001210401F8220000110F9401F8224000110F94E
S31560001220401F8228000110F9401F822C000110F92E
S31560001230401F8230000110F9401F8234000110F90E
S31560001240401F8238000110F9401F823C000110F9EE
S31560001250401F8240000110F9401F8244000110F9CE
S31560001260401F8248000110F9401F824C000110F9AE
S31560001270401F8250000110F9401F8254000110F98E
S31560001280401F8258000110F9401F825C000110F96E
S31560001290401F8260000110F9401F8264000110F94E
S315600012A0401F8268000110F9401F826C000110F92E
S315600012B0401F8270000110F9401F8274000110F90E
S315600012C0401F8278000110F9401F827C000110F9EE
S315600012D0401F8280000110F9401F8284000110F9CE
S315600012E0401F8288000110F9401F828C000110F9AE
S315600012F0401F8290000110F9401F8294000110F98E
S31560001300401F8298000110F9401F829C000110F96D
S31560001310401F82A0000110F9401F82A4000110F94D
S31560001320401F82A8000110F9402F00001000000441
S31560001330402F000800030524402F000C06030524F7
S31560001340402F00108000001B402F00148200001BFD
S31560001350402F00188400001B402F001C8600001BD5
S31560001360402F002090000021402F0024A00000198B
S31560001370402F0028A8000017402F002CA900001B52
S31560001380402F003000000021402F0004000079A8A3
S31560001390402F004000000F31402F00440065292295
S315600013A0402F004800010920402F004C50210A08B8
S315600013B0402F008000000021402F0084008888882C
S315600013C0402F009400000002402F009800000000AB
S315600013D0402F009080000000402F009CA55A000F0F
S315600013E0CF000C1C402F003C00000001CC00140410
S315600013F0402F009080000000402F009CA55A000CF2
S31560001400CF000C1C402F003C00000001CC001404EF
S31560001410402F009080000000402F009CA55A000CD1
S31560001420CF000C1C402F003C00000001CC001C04C7
S31560001430402F00A000000033402F00908000000085
S31560001440402F009CA55A000ACF000C1C402F003C80
S3156000145000000001CC000C04402F004C50210A090A
S31560002000000004205B24006077240060792400606F
S315600020107B2400607D2400607F2400600000000057
S315600020200000000000000000000000008124006045
S31560002030832400600000000085240060394F0000A2
S31560002040892400608D2400609124006095240060DE
S31560002050992400609D240060A1240060A52400608E
S31560002060A9240060AD240060B1240060B52400603E
S31560002070B9240060BD240060C1240060C5240060EE
S31560002080C92400604525006045250060452500603F
S31560002090CD240060D1240060D5240060D92400607E
S315600020A0DD240060E1240060E5240060E92400602E
S315600020B0ED240060F1240060F5240060F9240060DE
S315600020C0FD2400600125006005250060092500608B
S315600020D00D250060112500604525006045250060DE
S315600020E04525006045250060713500004525006086
S315600020F04525006045250060452500604525006052
S315600021004525006045250060452500604525006041
S315600021104525006045250060452500604525006031
S3156000212015250060192500601D25006021250060C9
S315600021302525006045250060452500604525006031
S315600021404525006045250060452500604525006001
S3156000215045250060452500604525006045250060F1
S3156000216045250060452500604525006045250060E1
S3156000217045250060452500604525006045250060D1
S315600021801932000045250060452500604525006040
S3156000219045250060452500604525006045250060B1
S315600021A04525006045250060292500602D250060D5
S315600021B04525006045250060452500604525006091
S315600021C04525006045250060452500604525006081
S315600021D04525006045250060452500604525006071
S315600021E04525006045250060452500604525006061
S315600021F03125006045250060352500603925006081
S31560002200F94F0000E94F00003D2500608D20000079
S315600022104525006045250060452500604525006030
S315600022204525006045250060452500604525006020
S315600022304525006045250060452500604525006010
S315600022404525006045250060452500604525006000
S3156000225045250060452500604525006045250060F0
S3156000226045250060452500604525006045250060E0
S3156000227045250060452500604525006045250060D0
S3156000228045250060452500604525006045250060C0
S3156000229045250060452500604525006045250060B0
S315600022A045250060452500604525006045250060A0
S315600022B04525006045250060452500604525006090
S315600022C04525006045250060452500604525006080
S315600022D04525006045250060452500604525006070
S315600022E04525006045250060452500604525006060
S315600022F04525006045250060452500604525006050
S31560002300452500604525006045250060452500603F
S31560002310452500604525006045250060452500602F
S31560002320452500604525006045250060452500601F
S31560002330452500604525006045250060452500600F
S3156000234045250060452500604525006045250060FF
S3156000235045250060452500604525006045250060EF
S3156000236045250060452500604525006045250060DF
S3156000237045250060452500604525006045250060CF
S3156000238045250060452500604525006045250060BF
S3156000239045250060452500604525006045250060AF
S315600023A0452500604525006045250060452500609F
S315600023B0452500604525006045250060452500608F
S315600023C0452500604525006045250060452500607F
S315600023D0452500604525006045250060452500606F
S315600023E0452500604525006045250060452500605F
S315600023F0452500604525006045250060FFFFFFFF1D
S31560002400DFF80CD000F012F900480047D1930000C5
S31560002410000004204C484FF0AA01026861F317429D
S3156000242002604A484A4901604A48026842F0070227
S3156000243002604FF0005048494FF0000240F8042B0C
S315600024408842FBD14FF000004FF480214FF000022C
S3156000245040F8042B8842FBD1704772B63F4840492A
S3156000246001600A6882F30888FFF7D4FF3D48804719
S3156000247062B63D480047FEE7FEE7FEE7FEE7FEE799
S31560002480FEE7FEE7FEE7FEE73848004738480047C4
S3156000249038480047384800473848004738480047BA
S315600024A038480047384800473848004738480047AA
S315600024B0384800473848004738480047384800479A
S315600024C0384800473848004738480047384800478A
S315600024D0384800473848004738480047384800477A
S315600024E0384800473848004738480047384800476A
S315600024F0384800473848004738480047384800475A
S315600025003848004738480047384800473848004749
S315600025103848004738480047384800473848004739
S315600025203848004738480047384800473848004729
S315600025303848004738480047384800473848004719
S31560002540384800473848004738C00A4044C00A4007
S31560002550AAAAFFFF40C00A400000042008ED00E080
S315600025600020006069270060012400604525006046
S3156000257045250060452500604525006045250060CD
S3156000258045250060452500604525006045250060BD
S3156000259045250060452500604525006045250060AD
S315600025A0452500604525006045250060452500609D
S315600025B0E937000005380000213800003D3800008A
S315600025C0593800007538000091380000AD380000B9
S315600025D065370000753700008537000045250060C7
S315600025E0452500604525006045250060452500605D
S315600025F0452500604525006045250060452500604D
S31560002600452500604525006045250060452500603C
S31560002610452500603D3000005150000071500000BB
S31560002620952100004525006045250060064C074D54
S3156000263006E0E06840F0010394E80700984710342C
S31560002640AC42F6D3FFF7E0FE3C2800607C280060D1
S3156000265010B50023234C236000BF00BF00BFBFF34B
S315600026604F8F00BF00BF00BF231F1868C0F34E31F5
S3156000267000BFC0F3C90200BF43F6E07303EA41132B
S315600026804FF0404404EA82742343174C236000BF32
S3156000269000BF131EA2F10102EED10B1EA1F10101D2
S315600026A0E7D100BF00BF00BFBFF34F8F00BF00BFC1
S315600026B000BF0C4B703B1B6843F48033094C703C85
S315600026C0236000BF00BF00BFBFF34F8F00BF00BFD6
S315600026D000BF00BF00BF00BFBFF36F8F00BF00BF6A
S315600026E000BF10BD84ED00E060EF00E000BF00BFFA
S315600026F000BFBFF34F8F00BF00BF00BF00BF00BF6A
S3156000270000BFBFF36F8F00BF00BF00BF002014493A
S31560002710086000BF00BF00BFBFF34F8F00BF00BFA0
S3156000272000BF00BF00BF00BFBFF36F8F00BF00BF19
S3156000273000BF0C48006840F400300A49086000BFDA
S3156000274000BF00BFBFF34F8F00BF00BF00BF00BF19
S3156000275000BF00BFBFF36F8F00BF00BF00BF7047F1
S3156000276050EF00E014ED00E010B52748006840F433
S315600027707000254908602548008800F0040028B1EB
S315600027802248008820F004002049088020480088FC
S3156000279000F0040028B11E48008820F004001C499F
S315600027A008801C481C4948604FF6FF7088600846E0
S315600027B0006820F0800040F0200008604FF0E020C4
S315600027C0006900F0010038B14FF0E020006920F0A8
S315600027D001004FF0E02108610B487438006800F48E
S315600027E00030B0F5003F01D0FFF780FF064874382F
S315600027F0006800F48030B0F5803F01D0FFF728FF15
S3156000280000F00CF810BD000088ED00E000800B4081
S3156000281000000D4020C528D900C00B40704702E07B
S3156000282008C8121F08C1002AFAD1704770470020F5
S3156000283001E001C1121F002AFBD170477C280060AD
S3156000284000040000F84101001E280060746A0160FF
S315600028500000002070010000E8060000B46A016014
S3156000286070010020C45201002E280060B46A016025
S315600028700000C08158E02E002E2800602DE9F05F30
S315600028800546002092469B46884606468146402479
S315600028901BE0284641464746224600F0DFF853468D
S315600028A05A46C01A914110D311461846224600F086
S315600028B0C6F82D1A67EB01084F4622460120002113
S315600028C000F0BDF817EB00094E41201EA4F101048B
S315600028D0DFDC484631462A464346BDE8F09F2DE98F
S315600028E0F0410024061B254671F1000605DA012435
S315600028F00027D0EB070067EB0101161E73F1000697
S3156000290005DA0027D2EB0702012567EB0303FFF721
S31560002910B5FF86460E4617469C46AC4204D0002557
S31560002920D0EB050E65EB010624B10020D2EB000763
S3156000293060EB030C704631463A466346BDE8F0816B
S3156000294010B5431A934209D28318881803E010F829
S31560002950011D03F8011D521EF9D210BD40EA0103A4
S315600029609B0703D009E008C9121F08C0042AFAD2DF
S3156000297003E011F8013B00F8013B521EF9D210BD8D
S31560002980D2B201E000F8012B491EFBD2704700224B
S31560002990F6E710B513460A4604461946FFF7F0FFF8
S315600029A0204610BD421C10F8011B0029FBD1801A7D
S315600029B0704730B504460020034600E05B1C934236
S315600029C003D2E05CCD5C401BF8D030BD3EB5CA1783
S315600029D0CB0F002450405140C0186141DA0740F2E5
S315600029E033430094CDE901232246234600F055F88F
S315600029F003B030BD70B5C1F30A5201F00045002442
S31560002A00C1F3130140F2FF3341F480119A4202DAB6
S31560002A100020014670BD40F233439A42A2F233422F
S31560002A2003DC524200F01AF801E000F008F82C438B
S31560002A30F0D00023D0EB030063EB010170BD202AC8
S31560002A4004DB203A00FA02F1002070479140C2F19F
S31560002A50200320FA03F3194390407047202A04DBD1
S31560002A60203A21FA02F00021704721FA02F3D040A1
S31560002A70C2F12002914008431946704710B5141EF2
S31560002A8073F1000408DA401C41F1000192185B41C1
S31560002A901A4301D120F0010010BD2DE9F04D924698
S31560002AA09B4611B1B1FA81F202E0B0FA80F22032AF
S31560002AB09046FFF7C4FF04460F4640EA0A0041EA23
S31560002AC00B0153465A46084313D0114653EA010098
S31560002AD019D0C8F140025046FFF7C0FF05460E46C2
S31560002AE0504659464246FFF7AAFF084305D00120E3
S31560002AF004E020463946BDE8F08D0020054346EAED
S31560002B00E0762C4337430A986305E40AA0EB080095
S31560002B100022FD0A44EA47540A3002D500200146E5
S31560002B20E9E7010510196941DDE9084500196941C0
S31560002B30BDE8F04DA2E770B521F0004303430CD029
S31560002B40C1F30A550024D5EB040564EB0403D617DC
S31560002B50AD1AB34102DB0020014670BD201841EB7F
S31560002B60025170BD70B58C1810F8015B15F0070343
S31560002B7001D110F8013B2A1106D110F8012B03E0B0
S31560002B8010F8016B01F8016B5B1EF9D12B0705D4B8
S31560002B900023521E0DD401F8013BFAE710F8013B01
S31560002BA0CB1A921C03E013F8015B01F8015B521E1D
S31560002BB0F9D5A142D8D3002070BD000010B54FF4FE
S31560002BC000409449086000BF93489449086000BF7C
S31560002BD00121934801F0FCF90121924801F0F8F9CE
S31560002BE09148C06820F01F0040F012008E49C8600E
S31560002BF000BF8D48006800F00040B0F1004FF8D18A
S31560002C008A4801F053F98A4801F07AF98948006FD9
S31560002C1040F40050874908678648A030006840F451
S31560002C200050C1F8A0000846D0F8E00040F400501B
S31560002C30C1F8E0000846D0F8E00040F40010C1F8A2
S31560002C40E0000021764801F0C3F900217A4801F0DE
S31560002C5069F90021734801F0BBF90021774801F05A
S31560002C6061F90321764801F05DF90121754801F0AB
S31560002C7059F90321744801F0ABF90121734801F059
S31560002C8051F90021724801F0A3F90021714801F061
S31560002C909FF90121704801F045F900216F4801F064
S31560002CA097F901216E4801F03DF900216848F83036
S31560002CB001F08EF901216648083801F089F9012191
S31560002CC04FF2140001F02EF90021664801F080F9F8
S31560002CD001216148183001F025F90221624801F0AE
S31560002CE077F904215448FC3801F01CF902215F4849
S31560002CF001F06EF902215E4801F014F9002159488D
S31560002D00E03001F065F903215A4801F00BF9012121
S31560002D104E480C3001F006F900214148001D01F0D3
S31560002D2057F903215348001D01F0FCF8012147487B
S31560002D30103001F0F7F800214C48001D01F048F909
S31560002D4003214D4801F0EEF801214C4801F0EAF804
S31560002D5000214B4801F03CF900214A4801F0E2F8B5
S31560002D60022137480C3001F033F90121464801F061
S31560002D70D9F800213648083001F02AF90021334895
S31560002D80083001F0CFF805213548EC3801F020F91C
S31560002D9001213E4801F0C6F803213748F03001F0C2
S31560002DA0C1F803213A4801F013F90121394801F0CD
S31560002DB0B9F807213048083001F0B4F803212048FB
S31560002DC0E43801F005F901213048083801F0AAF825
S31560002DD00721314801F0A6F80321304801F0F8F8E0
S31560002DE001212D48083801F09DF807212948083847
S31560002DF001F098F800212A4801F0EAF80D48D0F869
S31560002E00600120F01F0027490860274827490860AD
S31560002E1010BD00000800002000366E01040000208E
S31560002E20186C00801439001400000840E8ED0000BA
S31560002E30ECED000000800D4014FB008014EA0004F5
S31560002E401468008010E00040187200801CE0078063
S31560002E501C2600801C30008024EB00801C31008022
S31560002E6024F000803C69008018640080186E008041
S31560002E702479008028E6008028F6008028F0078004
S31560002E803832008038F3078020E2078038EC008013
S31560002E903074008030F9008030E900802073008053
S31560002EA00C20008060810D400046C3230000002096
S31560002EB010B56248006800F40030B0F5003F2BD1D1
S31560002EC000BF00BF00BF00BF00BFBFF34F8F00BF92
S31560002ED000BF00BF00BF00BF00BFBFF36F8F00BF62
S31560002EE000BF00BF5548006820F4003053490860B1
S31560002EF000205349086000BF00BF00BFBFF34F8F7B
S31560002F0000BF00BF00BF00BF00BF00BFBFF36F8F31
S31560002F1000BF00BF00BF00BF4848006800F48030B3
S31560002F20B0F5803F01D103F037FB00BF00BF00BFA3
S31560002F3000BF00BFBFF34F8F00BF00BF00BF00BF21
S31560002F4000BF00BFBFF36F8F00BF00BF00BF3B482D
S31560002F501030006820F480303849103108603748F6
S31560002F608030006820F0010034498031086000BF7D
S31560002F7034483249883108603348091D086033484F
S31560002F80091F08603048801C091D08603048091F09
S31560002F9008603048091D08601320091F08602A4828
S31560002FA0801C091D08601420091F0860294816380E
S31560002FB0091D08602848091F086026481638091D3B
S31560002FC008602648091F086022481638091D0860EF
S31560002FD01E48801D091F08601E480838091D0860C4
S31560002FE01F48091F08601F48091D0860042000BFAC
S31560002FF000BF00BF00BFBFF34F8F00BF00BF00BF61
S3156000300000BF00BF00BFBFF36F8F00BF00BF00BF30
S3156000301040F00101094A803211600849103109689F
S3156000302041F48031054A1032116000BF03F004FBA1
S3156000303003F050FB01F0B4F910BD000014ED00E0A0
S3156000304050EF00E0100000C039001003110000804E
S3156000305012000060390003031500002016002020CE
S315600030601800E0812900080370B51648C1B2164AF7
S315600030708958C0F34C32C0F304239A401140C0F320
S315600030800422D14061B9114800F08EFD0621B0FBE3
S31560003090F1F50F4800F04AFC401CB5FBF0F40FE078
S315600030A000BF0C48006800F0100008B10A4D01E04E
S315600030B00A480568064800F039FC401CB5FBF0F488
S315600030C0204670BD2426008000C00F400D00100011
S315600030D024E0078070820D4000366E0104000020F7
S315600030E010B5FFF7C1FF0446234602224FF4E131D3
S315600030F0014801F085F910BD0040184008B5034845
S3156000310000680090684600F0E3FE08BD1C410100BF
S315600031101CB540F2024000F091FB0020FE490346D8
S315600031200246CDE900100521FC4802F0C5FB0020EF
S31560003130F9491C3103460246CDE900100221F748E1
S315600031401C3002F0B9FB0020F349203103460246E9
S31560003150CDE900100221F148203002F0ADFB0020DD
S31560003160ED49DC3103460246CDE900100521EB4806
S31560003170DC3002F0A1FB0020E749E4310346024659
S31560003180CDE900100621E548E43002F095FB002009
S31560003190E149EC3103460246CDE900100146DF48BD
S315600031A0EC3002F089FB0020DB49F0310346024631
S315600031B0CDE900100146D948F03002F07DFB0020D1
S315600031C0D549F43103460246CDE900100146D3489D
S315600031D0F43002F071FB0020CF49F8310346024615
S315600031E0CDE900100146CC48F83802F065FB0020B6
S315600031F0C949FC3103460246CDE900100146C6487E
S31560003200F43802F059FB0020C54903460246CDE971
S3156000321000100146C048F03802F04EFB41F2B000A3
S31560003220BD4900231A46CDE900100521BB4802F0CE
S3156000323037FB41F2B000B8491C3100231A46CDE98C
S3156000324000100221B5481C3002F02AFB41F2B000A2
S31560003250B149203100231A46CDE900100221AF485A
S31560003260203002F01DFBAF48AD49243900231A46D1
S31560003270CDE900100521A948DC3002F011FBA94810
S315600032801830A7491C3900231A46CDE900100621DB
S31560003290A248E43002F004FBA248A1491439002395
S315600032A01A46CDE9001019469C48EC3002F0F8FA4F
S315600032B09D489B49103900231A46CDE900101946EE
S315600032C09648F03002F0ECFA964895490C3900239E
S315600032D01A46CDE9001019469048F43002F0E0FA3B
S315600032E090488F49083900231A46CDE900101946DF
S315600032F08948F83802F0D4FA8A488949091F0023B8
S315600033001A46CDE9001019468348F43802F0C8FA27
S315600033108448834900231A46CDE9001019467E4841
S31560003320F03802F0BDFA00207D49183103467F4A25
S31560003330CDE9001001467848D83802F0BDFA002081
S31560003340774914310346794A083ACDE900100146B7
S315600033507148DC3802F0B0FA00207149103103463A
S31560003360724A121DCDE9001001466B48E03802F042
S31560003370A3FA00206A490C3103466C4A0832CDE94B
S31560003380001001466448E43802F096FA0020644969
S3156000339008310346654A0C32CDE9001001465E48A5
S315600033A0E83802F089FA00205D49091D03465F4A44
S315600033B01032CDE9001001465748EC3802F07CFA2D
S315600033C05848574918310023584ACDE90010194624
S315600033D05148D83802F064FA5348514914310023F1
S315600033E0524A083ACDE9001019464B48DC3802F0DB
S315600033F057FA4C484A49103100234C4A121DCDE910
S31560003400001019464448E03802F04AFA45484449F3
S315600034100C310023454A0832CDE9001019463E4872
S31560003420E43802F03DFA3F483D49083100233F4AFF
S315600034300C32CDE9001019463748E83802F030FA08
S3156000344038483749091D0023384A1032CDE9001043
S3156000345019463148EC3802F023FA00202E49103123
S3156000346003460246CDE9001005212C48103002F0D3
S3156000347023FA00202849143103460246CDE900109C
S3156000348005212648143002F017FA002024494439F1
S315600034900123234A7432CDE9001003211F48BC3052
S315600034A002F00AFA00201E49403901231C4A78328C
S315600034B0CDE9001003211948C03002F0FDF9002063
S315600034C017493C390123164A7C32CDE900100321A5
S315600034D01248C43002F0F0F9002011493839034629
S315600034E00246CDE9001003210C48C83002F0E4F929
S315600034F000200B49343903460246CDE9001003210A
S315600035000648CC3002F0D8F9002005493039034628
S315600035100246CDE900100BE0C0821F40D0801F40FC
S31560003520C0831F408970010089400100E4851F4007
S3156000353003216A4802F0C0F9012069490346684AD6
S315600035409832CDE9001006216448001D02F0B4F9F6
S3156000355000206349091D0123614AAC32CDE90010A0
S3156000356003215E48083002F0A7F900205C499839CB
S3156000357003460246CDE9001001215848943802F00E
S315600035809BF90020564914310223554A9C32CDE9F5
S31560003590001001465148183002F08EF94BF2A9002E
S315600035A04F49C43900231A46CDE9001005214B481E
S315600035B0C03802F075F94BF2A9004949C0390023B9
S315600035C01A46CDE9001005214448BC3802F068F976
S315600035D04BF2E900424918390123414AA032CDE94C
S315600035E0001003213D48143802F05AF94BF2E90005
S315600035F03B49143901233A4AA432CDE9001003212C
S315600036003648103802F04CF94BF2E900344910396B
S315600036100123334AA832CDE9001003212F480C3824
S3156000362002F03EF94BF2E9002D490C3900231A46A7
S31560003630CDE9001003212948083802F031F94BF230
S31560003640E9002749083900231A46CDE9001003210D
S315600036502248001F02F024F94BF2E9002049091FB5
S3156000366000231A46CDE9001003211C4802F018F920
S3156000367031201B4901231A4A9832CDE900100621F0
S315600036801648001D02F00CF94BF2E9001449091DB9
S315600036900123134AAC32CDE9001003210F480830EC
S315600036A002F0FEF84BF2E9000D49983900231A46FC
S315600036B0CDE9001001210948943802F0F1F84BF683
S315600036C02900074914310223054A9C32CDE90010CE
S315600036D000210248183002F0E3F81CBDA0811F40AB
S315600036E094831F402DE9F04104460E46270A04F0F4
S315600036F01F08062F00D805E040F2753208A111A018
S3156000370003F01CFF124800EB87052868032101FAC5
S3156000371008F1884306FA08F108432860BDE8F0819D
S315600037202E2E5C2E2E5C6C69627261726965735CAA
S31560003730647269766572735C66736C5F636C6F6383
S315600037406B2E6800696E646578203C3D203600000B
S3156000375068C00F402DE9F04104460E46270A04F082
S315600037601F08062F00D805E040F2753208A111A0A7
S3156000377003F0E4FE124800EB87052868032101FA8E
S3156000378008F1884306FA08F108432860BDE8F0812D
S315600037902E2E5C2E2E5C6C69627261726965735C3A
S315600037A0647269766572735C66736C5F636C6F6313
S315600037B06B2E6800696E646578203C3D203600009B
S315600037C068C00F402DE9F0470446254603274FEAB7
S315600037D0152805F01F09B8F1060F00D805E040F27C
S315600037E0753209A111A003F0A9FE134800EB880603
S315600037F03068032101FA09F1884307FA09F10843A1
S31560003800306000BFBDE8F0872E2E5C2E2E5C6C69A2
S31560003810627261726965735C647269766572735CA3
S3156000382066736C5F636C6F636B2E6800696E64654C
S3156000383078203C3D2036000068C00F402DE9F047F7
S315600038400446254603274FEA152805F01F09B8F1F7
S31560003850060F00D805E040F2753209A111A003F009
S315600038606DFE134800EB88063068032101FA09F102
S31560003870884307FA09F10843306000BFBDE8F08766
S315600038802E2E5C2E2E5C6C69627261726965735C49
S31560003890647269766572735C66736C5F636C6F6322
S315600038A06B2E6800696E646578203C3D20360000AA
S315600038B068C00F402DE9F0470446254603274FEAC6
S315600038C0152805F01F09B8F1060F00D805E040F28B
S315600038D0753209A111A003F031FE134800EB88068A
S315600038E03068032101FA09F1884307FA09F10843B0
S315600038F0306000BFBDE8F0872E2E5C2E2E5C6C69B2
S31560003900627261726965735C647269766572735CB2
S3156000391066736C5F636C6F636B2E6800696E64655B
S3156000392078203C3D2036000068C00F400146C8B292
S31560003930054A8058C1F34C32C1F304239A401040C3
S31560003940C1F30422D040704700C00F4070B50546F1
S31560003950162D6ED2DFE805F00B0C1635464A4F542D
S31560003960595E63686E73787D82878C91979C00BF81
S3156000397000F0B6F84B494969C1F38221491CB0FB96
S31560003980F1F48CE04748406900F0400070B145486A
S31560003990406900F0800020B1012000F051FA044631
S315600039A007E0022000F016FA044602E000F098F8FC
S315600039B004463C484069C0F30240401CB4FBF0F446
S315600039C06DE000F08DF837494969C1F38221491CE1
S315600039D0B0FBF1F433484069C0F30120401CB4FBEE
S315600039E0F0F45CE000F06CF8044658E000BF4FF479
S315600039F0004400BF53E00D2000F0D6F804464EE0C8
S31560003A00294800F0D1F8044649E0002000F018FA91
S31560003A10044644E0012000F013FA04463FE0022029
S31560003A2000F00EFA04463AE0032000F009FA044674
S31560003A3035E032E01D4800F0B7F804462FE01C4838
S31560003A4000F0B2F804462AE0002000F0C3F904460C
S31560003A5025E0012000F0BEF9044620E0022000F0D7
S31560003A60B9F904461BE0032000F0B4F9044616E0F9
S31560003A70104800F099F8044611E00E48083000F04E
S31560003A8093F804460BE00C4800F08EF8044606E016
S31560003A900A4800F089F8044601E0002400BF00BF30
S31560003AA0204670BD00C00F400D0010000D002000C4
S31560003AB00D0030000D00E0000D0070000D00A0004C
S31560003AC00448006800F0100008B1034870470348D6
S31560003AD00068FBE770820D4000366E01040000202E
S31560003AE010B52E48406900F0007040B32B488069DD
S31560003AF000F4405048B1B0F5805F0BD0B0F5005F80
S31560003B000CD0B0F5405F0ED10EE0254800F04CF8C1
S31560003B1004460BE0FFF7D4FF044607E0214800F0B7
S31560003B2043F8044602E000BF002400BF00BF1B4804
S31560003B304069C0F3C260401CB4FBF0F42BE0174848
S31560003B40806900F4402048B1B0F5802F0BD0B0F505
S31560003B50002F0DD0B0F5402F1AD10EE0114800F0BD
S31560003B6023F8044616E0022000F034F9044611E01A
S31560003B70002000F02FF904460CE00D2000F014F848
S31560003B800649096901F00701491CB0FBF1F401E03F
S31560003B90002400BF00BF204610BD000000C00F40DB
S31560003BA00D0010000D0030002DE9FF478146834B64
S31560003BB0D3E90020D3E9021301AC0BC4009280491B
S31560003BC04846C0F30B428A5800F01F070123BB40EA
S31560003BD01A400AB1012200E000221AB9002004B09E
S31560003BE0BDE8F087764FC846C8F30B403858C0F337
S31560003BF0813010B9FFF764FF00E00020044670488A
S31560003C00C9F30B414158C1F3004109B12046E6E7CB
S31560003C106C49A9EB0100894545D00DDCB9F10D0F62
S31560003C2016D0A9F580100D3890B3B0F5801F70D00E
S31560003C30B0F5001F6ED112E0B0F5401F6DD0B0F543
S31560003C40E00F69D0A0F5E00008380028F2D1A3E0C3
S31560003C505B48006800F07F0060434408AAE058486B
S31560003C60D0F860C0006DA4FB007162460023384640
S31560003C70FEF704FE05465248006B00F0010010B1E5
S31560003C801620444302E004EB840084002C4491E057
S31560003C90FFE74B48006900F0020008B1162000E01B
S31560003CA01420444386E04648006F00F07F0A44488B
S31560003CB09030D0F800C04248D0F88000A4FB007075
S31560003CC00146624600233846FEF7D8FD054604FBEA
S31560003CD00A543B48006F00F4C01018B1B0F5002FCD
S31560003CE004D101E0A40802E0640800E000BF00BF60
S31560003CF03548006835490840B0F5004F04D0494260
S31560003D00084418B9A40802E0640800E000BF00BFD8
S31560003D1050E043E04CE000E036E02948A03000681F
S31560003D2000F07F0A2648D0F8C0C0B0300068A4FB17
S31560003D3000700146624600233846FEF79FFD054641
S31560003D4004FB0A541E48D0F8A00000F4C01018B155
S31560003D50B0F5002F04D101E0A40802E0640800E099
S31560003D6000BF00BF1848006800F04040B0F1404F07
S31560003D7003D0B0F1804F04D101E0A40802E06408EA
S31560003D8000E000BF00BF15E00F489038006800F003
S31560003D90030A5DF82A400DE00D4C0BE00848006A06
S31560003DA000F0020008B1162000E01420444301E050
S31560003DB0002400BF00BF204611E7000048ED000068
S31560003DC000800D400D00700070810D400080800005
S31560003DD040787D0170B505461748FFF7E5FE044655
S31560003DE035B1012D0BD0022D10D0032D1CD114E05E
S31560003DF01248006800F03F00B4FBF0F416E00F488C
S31560003E000068C0F30520B4FBF0F40FE00B480068CF
S31560003E10C0F30540B4FBF0F408E008480068C0F35E
S31560003E200560B4FBF0F401E0002400BF00BF04EBC2
S31560003E30C4004400204670BD0D00300000810D4076
S31560003E4070B505461748FFF7AFFE044635B1012D3C
S31560003E500BD0022D10D0032D1CD114E0124800683F
S31560003E6000F03F00B4FBF0F416E00F480068C0F3C2
S31560003E700520B4FBF0F40FE00B480068C0F3054082
S31560003E80B4FBF0F408E008480068C0F30560B4FBD2
S31560003E90F0F401E0002400BF00BF04EBC40044005E
S31560003EA0204670BD0D001000F0800D40017801F0D5
S31560003EB07F0141F40051054A116000BF034909685A
S31560003EC001F000410029F9D07047000000800D40E4
S31560003ED0827802F0030102780AB141F40051427817
S31560003EE00AB141F40011054A116000BF034A126825
S31560003EF002F00042002AF9D070470000E0800D40D1
S31560003F00017801F0010141F40051054A116300BFD7
S31560003F100349096B01F000410029F9D070470000A0
S31560003F2000800D4070B504460E463F2000EA946559
S31560003F30E0B215494158C4F34C30C4F304229040B2
S31560003F4021EA0000C4F3042206FA02F1C4F34C32FB
S31560003F50C4F304239A4011400843E1B20A4A8850E8
S31560003F60202D00D805E040F2533208A110A003F0DE
S31560003F70E5FA202D07D000BF0348806C0121A940D7
S31560003F8008400028F8D170BD00C00F402E2E5C2E70
S31560003F902E5C6C69627261726965735C6472697663
S31560003FA06572735C66736C5F636C6F636B2E6800BF
S31560003FB0627573795368696674203C3D2043434D4E
S31560003FC05F4E4F5F425553595F5741495400000059
S31560003FD070B504460E463F2000EA9465E0B2154986
S31560003FE04158C4F34C30C4F30422904021EA0000E7
S31560003FF0C4F3042206FA02F1C4F34C32C4F3042378
S315600040009A4011400843E1B20A4A8850202D00D8F0
S3156000401005E040F22E3208A110A003F08FFA202DA1
S3156000402007D000BF0348806C0121A94008400028E2
S31560004030F8D170BD00C00F402E2E5C2E2E5C6C69D0
S31560004040627261726965735C647269766572735C6B
S3156000405066736C5F636C6F636B2E680062757379F1
S315600040605368696674203C3D2043434D5F4E4F5F05
S31560004070425553595F57414954000000074800684C
S3156000408040F0807005490860002005494860084690
S31560004090006840F00100086070470000FCED00E039
S315600040A0001000E02DE9FF4F2DED0A8B87B08346A7
S315600040B016461F464FF000095D46002005F8010BC5
S315600040C0129890ED000BB0EE40BBB5EEC0BBF1EEC2
S315600040D010FA0AD13020287009F10109484607B064
S315600040E0BDEC0A8B04B0BDE8F08F02A8B0EE4B0BB6
S315600040F003F046FAB0EE409B4FF0000A09E000EE8E
S31560004100106AB8EEC00B29EE000BB0EE409B0AF1C8
S31560004110010ABA45F3D3B5EEC0BBF1EE10FA19DB6E
S31560004120B6EE000B39EE008B00EE107AB8EE401B4F
S31560004130B2EE040B03F086FAB4EEC80BF1EE10FA99
S3156000414023D89DED020BB7EE001B30EE010B8DED13
S31560004150020B1AE0B6EE000B39EE408B00EE107AD9
S31560004160B8EE401BB2EE040B03F06CFAB1EE400BF6
S31560004170B4EEC80BF1EE10FA07DB9DED020BB7EE5D
S31560004180001B30EE410B8DED020B4FF0000A2FE065
S3156000419000EE106AB8EEC00B88EE00AB51EC1A0B5D
S315600041A0FEF728FCF317A0FB062C01FB06C100FBFB
S315600041B00310CDE9002010460199FEF707FC41EC9B
S315600041C0100B38EE40CBBDEECC0B10EE104A002C37
S315600041D005DA0494049CE04300F1310400E03034D5
S315600041E0B0EE4A8B05F8014B09F101090AF1010AA3
S315600041F0BA45CDD32E2005F8010B09F101099DEDD5
S31560004200020BBDEEC00B10EE108AB8F1000F05D19F
S31560004210302005F8010B09F1010918E014E098FB5C
S31560004220F6F00590059800FB1684002C05DA0494D8
S31560004230049CE04300F1310400E03034DDF8148082
S3156000424005F8014B09F10109B8F1000FE7D14846BD
S3156000425045E72DE9FF4F89B01E4600200190DDF845
S3156000426024B00BF8010B0B9800284DD00A98D0E9C2
S315600042700078002187EA010088EA0101084309D134
S3156000428030208BF800000198401C019001980DB019
S31560004290BDE8F08F2FE03246F31738464146FEF709
S315600042A01EFBCDE90601F317DDE90601A0FB062C2E
S315600042B001FB06C103FB0013B91A68EB0300CDE9E5
S315600042C004100023DDE90410C91A984107DA049C3A
S315600042D0E143491C4FF030000818049002E004984E
S315600042E030300490DDE9067804980BF8010B0198EC
S315600042F000F1010001904FF0000187EA010088EAB1
S3156000430001010843C7D148E00A98D0E9009A002124
S3156000431089EA01008AEA0101084307D130208BF857
S3156000432000000198401C01900198B0E72DE03246EC
S31560004330F31748465146FEF7A1FACDE90201F31795
S31560004340DDE90201A0FB062C01FB06C100FB0310A0
S31560004350B9EB02046AEB00050A21611A75F10000E7
S3156000436001D2303409E00A21601A65F1000116991C
S3156000437009B1412100E061214418DDE9029A0BF898
S31560004380014B019800F1010001904FF0000189EAAC
S3156000439001008AEA01010843C9D1019877E7000064
S315600043A010B500BF00BFEFF310831A4672B600BFA8
S315600043B011460F4A12680F4B9A4211D0002006E050
S315600043C00D4A52F820200B4B43F82020401C0B4A24
S315600043D0084BD21AB0EB920FF2D31A46044B1A600E
S315600043E000BF00BF81F3108800BF00BF10BD000092
S315600043F008ED00E0000000000020006000040000FE
S315600044002DE9F04106460D4614461F4604B104E008
S31560004410692206A111A003F091F83B462A4621467F
S31560004420304601F08FFBBDE8F08100002E2E5C2E39
S315600044302E5C6C69627261726965735C7574696CB5
S3156000444069746965735C66736C5F64656275675F82
S31560004450636F6E736F6C652E6300000064657669CA
S31560004460636520213D2044454255475F434F4E5387
S315600044704F4C455F4445564943455F545950455FE7
S315600044804E4F4E45000000000FB430B5A1B0002479
S31560004490002580216846FEF77AFA25A82090094B08
S315600044A06A462099249802F071FC044621466846C3
S315600044B001F06CFB054600202090284621B030BCF8
S315600044C05DF814FB4D2000002DE9F04105460C46D1
S315600044D016461F464FF0000800BF10E02068401CDB
S315600044E0802805D32846216801F050FB0020206013
S315600044F020682E542068401C206008F10108B845E9
S31560004500ECDBBDE8F081000010B5034801680348A4
S31560004510034A1268904710BD2000002000802D409D
S315600045203000002070B504460D4605B905E04FF42D
S31560004530517207A10FA003F001F81DB94FF080700A
S31560004540606103E04FF08070606100BF00BF70BDC6
S315600045502E2E5C2E2E5C6C69627261726965735C6C
S31560004560647269766572735C66736C5F656E65743A
S315600045702E63000072696E674964203C2046534C86
S315600045805F464541545552455F454E45545F5155CA
S31560004590455545004160704770B5064674683046BB
S315600045A000F0BAF8054604F0406030B1124850F8A1
S315600045B025103046114A1268904704F0407030B1B9
S315600045C00D4850F8251030460D4A1268904704F49D
S315600045D0C03030B1084850F825103046094A126894
S315600045E090470948204030B1034850F825103046BE
S315600045F0064A1268904770BD200000202400002003
S31560004600280000203000002000007C602C00002084
S3156000461010B50248FFF7C0FF10BD000000802D40B6
S315600046202DE9F04104460D4605B105E040F68222CB
S3156000463016A11FA002F082FF1F4E606800F40030D2
S31560004640B8B14FF400306060002020B1616A41F07B
S315600046500C01616203E0616A21F00C01616200BFD6
S31560004660E86988B1032229462046D5E90773B84729
S315600046700AE0606806406660E86928B10222294659
S315600046802046D5E90773B847BDE8F0812E2E5C2E2B
S315600046902E5C6C69627261726965735C647269765C
S315600046A06572735C66736C5F656E65742E6300001D
S315600046B068616E646C65000000007C6010B504463D
S315600046C004B105E040F2511208A111A002F036FFD4
S315600046D020212046FEF75BF90120A072E07220736C
S315600046E0207740F2EE50208110BD00002E2E5C2E09
S315600046F02E5C6C69627261726965735C64726976FC
S315600047006572735C66736C5F656E65742E630000BC
S31560004710636F6E666967000070B50546002406E043
S31560004720094850F82400A84200D102E0641C002C1D
S31560004730F6D000BF04B905E040F2491203A10CA00F
S3156000474002F0FCFE204670BDE4ED00002E2E5C2ECD
S315600047502E5C6C69627261726965735C647269769B
S315600047606572735C66736C5F656E65742E6300005C
S31560004770696E7374616E6365203C20415252415983
S315600047805F53495A4528735F656E65744261736508
S31560004790732900002DE9F04105460E4605B105E096
S315600047A04FF4886224A12DA002F0C8FE686800B1AB
S315600047B005E040F2414220A12AA002F0BFFE06B108
S315600047C005E040F242421CA12CA002F0B7FE002098
S315600047D030604FF408476C68608800F4004018B198
S315600047E040F6A270BDE8F08100BF608800F400402A
S315600047F020B9208810B94FF47A60F3E760883840B2
S31560004800B0F5006F0AD1608800F0370010B14FF440
S315600048107A60E7E7208830600020E3E7608800F48C
S31560004820005008B12C6800E008346868A042DCD10A
S3156000483040F6A270D6E700002E2E5C2E2E5C6C69C8
S31560004840627261726965735C647269766572735C63
S3156000485066736C5F656E65742E63000068616E6476
S315600048606C65000068616E646C652D3E72784264AA
S3156000487043757272656E745B305D00006C656E6761
S31560004880746800002DE9FC5F05460E4614461F4617
S31560004890DDE90C8B06B105E040F26D1229A132A06C
S315600048A002F04CFE04B105E04FF4B77225A130A0CA
S315600048B002F044FE07B105E040F26F1221A12EA07E
S315600048C002F03CFEB8F1000F00D005E04FF4B8727C
S315600048D01CA12DA002F032FE207F012800DC05E03D
S315600048E040F2711217A12AA002F028FE2846FFF7AF
S315600048F013FF8146314830F919A003215046FEF76F
S3156000490029FF00BF00BF686A40F00100686200BF0F
S315600049103A462146304600F039FC3A462146304652
S3156000492000F062FB3B46224631462846CDE9008BC5
S3156000493000F060FA3B4622463146284600F0AEF962
S31560004940BDE8FC9F2E2E5C2E2E5C6C6962726172D5
S315600049506965735C647269766572735C66736C5F55
S31560004960656E65742E63000068616E646C65000038
S31560004970636F6E6669670000627566666572436F2F
S315600049806E666967000000006D6163416464720071
S31560004990636F6E6669672D3E72696E674E756D20D0
S315600049A03C3D2046534C5F464541545552455F4514
S315600049B04E45545F5155455545000000DCED0000FD
S315600049C02DE9FF4F83B00C461746984604B105E0C3
S315600049D040F27A4232A13BA002F0B0FD606800B1BD
S315600049E005E040F27B422EA138A002F0A7FD4FF011
S315600049F000090026B346656800200290A7B900BF8B
S31560004A006068B0F802A000222146039800F084FC9A
S31560004A100AF4006000B102E06068A842F0D100BF0D
S31560004A20029807B0BDE8F08F33E0688800F4006054
S31560004A30D8B14FF0010B2888404510D12888A0EBEB
S31560004A40060968680190B8194A460199FDF778FF2A
S31560004A5000222146039800F05FFC0298E1E70022FD
S31560004A602146039800F058FC12E04FF0000B4645D3
S31560004A7000D311E068680190B81922690199FDF7C1
S31560004A805FFF2069064400222146039800F044FC3B
S31560004A906568BBF1000FC8D000BF40F6A170C0E7E3
S31560004AA02E2E5C2E2E5C6C69627261726965735C17
S31560004AB0647269766572735C66736C5F656E6574E5
S31560004AC02E63000068616E646C65000068616E64E8
S31560004AD06C652D3E7278426443757272656E745B66
S31560004AE0305D00002DE9F04105460C4604B105E055
S31560004AF040F65D220AA113A002F020FD4FF0407639
S31560004B0008E06E60E06928B1002221462846D4E9B3
S31560004B100773B847686830400028F2D1BDE8F08175
S31560004B202E2E5C2E2E5C6C69627261726965735C96
S31560004B30647269766572735C66736C5F656E657464
S31560004B402E63000068616E646C6500002DE9F05F9D
S31560004B5083460D4617461E4605B105E040F22752CC
S31560004B6041A14AA002F0EAFC07B105E04FF4A56254
S31560004B703DA148A002F0E2FC4FF00008C14640F2B9
S31560004B80EE50864203D940F6A370BDE8F09FEC680C
S31560004B90608800F4004010B140F6A470F5E76869DB
S31560004BA0B0421BD3D4F804A0324639465046FDF7CE
S31560004BB0C7FE2680608840F408406080608800F404
S31560004BC0005010B1A868E86002E0E8680830E86064
S31560004BD000215846FFF7A6FC0020D6E700BF608894
S31560004BE000F4005010B1A868E86002E0E868083098
S31560004BF0E860A6EB08096869484518D2D4F804A0AD
S31560004C0007EB080150466A69FDF79AFEA88A20807C
S31560004C1068698044608820F400606080608840F441
S31560004C200040608000215846FFF77CFC13E0D4F812
S31560004C3004A007EB08014A465046FDF781FEA4F83A
S31560004C400090608840F40840608000215846FFF775
S31560004C5069FC002099E7EC68608800F40040002851
S31560004C60BDD040F6A47090E72E2E5C2E2E5C6C694B
S31560004C70627261726965735C647269766572735C2F
S31560004C8066736C5F656E65742E63000068616E6442
S31560004C906C65000064617461000000002DE9F047F6
S31560004CA082460C46174699465046FFF735FD8046C4
S31560004CB04E4624212046FDF76AFE387F012801DD35
S31560004CC0012000E0387F2076002526E03188706874
S31560004CD048433989884200D905E04FF4D87225A146
S31560004CE02D4802F02BFCF06844F82500201DF16881
S31560004CF040F825100C30716840F825100838316985
S31560004D0040F82510001D316940F825100830B1685B
S31560004D1040F825101C36681CC5B2207EA842D5DC3A
S31560004D201E4840F82840786800F0406038B11C485A
S31560004D301C4908601C4931F9180000F05BFB786873
S31560004D4000F0407038B1194819490860194931F9BD
S31560004D50180000F04FFB18497868084038B11748CA
S31560004D6017490860174931F9180000F043FBBDE8A0
S31560004D70F08700002E2E5C2E2E5C6C69627261726A
S31560004D806965735C647269766572735C66736C5F21
S31560004D90656E65742E6300001843010020000020D4
S31560004DA0352E000024000020DEED0000692600009C
S31560004DB028000020E0ED000000007C60A5210000D6
S31560004DC02C000020E2ED000010B50B781B064C7835
S31560004DD043EA04438C7843EA0423CC7843EA04022A
S31560004DE0C0F8E4204B790C7943EA04221304C0F836
S31560004DF0E83010BD2DE9F05F044615469846002759
S31560004E00B946D4F824A02E68B5F808B006F4007048
S31560004E1028B140F2EE50834501D840F2F25B06F0CD
S31560004E20020010B14FF0804000E0002006F0010162
S31560004E3011B14FF4004100E00021084306F0010182
S31560004E4009B1202100E00021084306F0040111B1F8
S31560004E504FF4805100E00021084306F0080109B1D3
S31560004E60102100E00021084306F0800109B1082105
S31560004E7000E0002108435B4901EA0B41084340F426
S31560004E80804747F00407A87A012801D147F4807764
S31560004E90E87A08B947F40077287B08B947F0020733
S31560004EA0288800F4807030B1A87A012803D047F0D2
S31560004EB0010727F00207C4F88470D4F8C40020F410
S31560004EC08279287B08B1042000E0002006F01001FA
S31560004ED011B14FF4807100E00021084340EA0909EE
S31560004EE0C4F8C490A87BC4F8C001687BC4F8C40148
S31560004EF006F0010030B1298AC4F8EC10A87CC4F829
S31560004F00940100BF06F0200040B1287D00F03F000C
S31560004F10C4F84401E87CC4F8900106E04FF4807060
S31560004F20C4F844010020C4F89001A87B00F0180082
S31560004F3018B14FF48070C4F84401687B00F0060035
S31560004F4010B10020C4F89001D8F81000C4F88401AC
S31560004F50D8F80C00C4F88001D8F80400C4F88801B9
S31560004F6020460A99FFF730FF00BF606C00F07E00B4
S31560004F7008B1012000E0002030B92878C0F3801223
S31560004F8020460B9900F0B6F8A869F8B14FF0A0601A
S31560004F90A1688143A160A96909784FF07F6202EA3E
S31560004FA00151AA695288114341F04041C4F8F0109A
S31560004FB0A96909794FF07F6202EA0151AA69D2882C
S31560004FC0114341F04041C4F8001100BF6868A16810
S31560004FD00143A16000BF4AF4817AC4F824A0BDE809
S31560004FE0F09F00000000FF3F2DE9F05F83460E460C
S31560004FF0174606B105E040F2FA2222A12AA002F085
S315600050009DFA07B105E040F2FB221EA128A002F03E
S3156000501095FA3C464FF000082FE06068FF2800D9FB
S3156000502005E040F20A3217A125A002F087FAE0688F
S31560005030F0B16069E0B1E068D4F80490D4F814A0E7
S31560005040002511E005FB09A14160002101804FF4B4
S31560005050004141802188491EA94203D1418841F41B
S315600050600051418008306D1C2188A942EAD800BFF2
S315600050701C3408F1010000F0FF08307F4045CCDCAD
S31560005080BDE8F09F2E2E5C2E2E5C6C69627261729A
S315600050906965735C647269766572735C66736C5F0E
S315600050A0656E65742E630000636F6E6669670000E7
S315600050B0627566666572436F6E66696700000000BA
S315600050C0627566664366672D3E727842756666539C
S315600050D0697A65416C69676E203E3D20454E455450
S315600050E05F52585F4D494E5F425546464552534959
S315600050F05A4500002DE9F04705460C46164604B1B0
S3156000510005E040F2A93213A11BA002F017FA4FF096
S315600051100008C14600271B48B4FBF0F91A48B0FBEB
S31560005120F4F009301849B1FBF4F1B0FBF1F0A0F1ED
S3156000513001087E2000EA49004FF4E06101EA082197
S3156000514008430EB1802100E0002140EA01076F6448
S31560005150BDE8F0872E2E5C2E2E5C6C6962726172E1
S315600051606965735C647269766572735C66736C5F3D
S31560005170656E65742E630000737263436C6F636B58
S315600051805F487A00404B4C0000CA9A3B2DE9F05FBD
S3156000519083460E46174606B105E04FF431721DA1EF
S315600051A025A002F0CBF907B105E040F2C52219A1AE
S315600051B023A002F0C3F93C464FF0000825E02069C1
S315600051C0F0B1A069E0B12069D4F80890D4F818A0CD
S315600051D0002511E005FB09A14160002101804FF423
S315600051E0806141806188491EA94203D1418841F4AA
S315600051F00051418008306D1C6188A942EAD800BF21
S315600052001C3408F1010000F0FF08307F4045D6DC11
S31560005210BDE8F09F2E2E5C2E2E5C6C696272617208
S315600052206965735C647269766572735C66736C5F7C
S31560005230656E65742E630000636F6E666967000055
S31560005240627566666572436F6E6669670000000028
S3156000525070B500244FF0405505EA037545F080456A
S315600052604FF0786606EAC15635434FF4F80606EA0B
S315600052708246354345F40034046470BDF0B5059C40
S3156000528000254FF0405606EA037646F080464FF01A
S31560005290786707EAC1573E434FF4F80707EA824743
S315600052A03E4346F40036A7B246EA07050564F0BDFC
S315600052B02DE9F04105460C4604B105E040F628228A
S315600052C00AA113A002F03AF94FF0406608E06E605A
S315600052D0E06928B1012221462846D4E90773B84718
S315600052E0686830400028F2D1BDE8F0812E2E5C2E31
S315600052F02E5C6C69627261726965735C64726976F0
S315600053006572735C66736C5F656E65742E630000B0
S3156000531068616E646C65000070B506460D4614469D
S3156000532005B105E040F2FF421FA128A002F006F990
S3156000533004B905E04FF4A0621BA126A002F0FEF8B6
S31560005340281D50F82400408800F40051281D50F8AC
S3156000535024004180281D50F82400408840F4004114
S31560005360281D50F824004180281D50F824004088EC
S3156000537000F4005028B155F82410281D40F8241078
S3156000538006E0281D50F824000830291D41F8240045
S315600053901CB94FF08070306103E04FF0807030616F
S315600053A000BF00BF70BD00002E2E5C2E2E5C6C69A7
S315600053B0627261726965735C647269766572735CE8
S315600053C066736C5F656E65742E63000068616E64FB
S315600053D06C65000072696E674964203C2046534CD8
S315600053E05F464541545552455F454E45545F51555C
S315600053F045554500014611F1800F01D101207047E6
S315600054000846002809DB00F01F0301229A40430981
S315600054109B0003F1E023C3F8002100BF0020EEE704
S3156000542070B505460C46002640F60A000440002C7E
S3156000543028D004F4006010B141F6593611E004F04A
S31560005440080010B141F65A360BE004F0020010B1C4
S3156000545041F65B3604E0D9220BA115A002F06EF886
S3156000546000BF00BF68692043686100BFD5F8BC0013
S3156000547040F00100C5F8BC00D5F8B80040F0010066
S31560005480C5F8B800304670BD2E2E5C2E2E5C6C6959
S31560005490627261726965735C647269766572735C07
S315600054A066736C5F666C65787370692E6300000066
S315600054B066616C736500000010B5034801680348B7
S315600054C000F032F810BD00001800002000802A406D
S315600054D070B504460D4605B105E04FF42F7206A17E
S315600054E00FA002F02BF840F66B0021698143216121
S315600054F000BF0020286070BD2E2E5C2E2E5C6C696D
S31560005500627261726965735C647269766572735C96
S3156000551066736C5F666C65787370692E63000000F5
S3156000552068616E646C6500002DE9F04705460C46BF
S3156000553000266869C7B239462846FFF771FF82467A
S31560005540BAF1000F0FD0206968B121462846FFF7EF
S31560005550BFFF206928B1524621462846D4E904C3D4
S31560005560E047BDE8F08707F0200000283BD02068C0
S31560005570022838D1D5F8B800C0F3830000F10109DC
S315600055804FEAC901A068884215D3002609E005F5EF
S31560005590807050F826106268101D60601160701C83
S315600055A0C6B24FEA4900B042F1DC0821A06801FBAF
S315600055B01900A06013E0002609E005F5807050F838
S315600055C026106268101D60601160701CC6B20121F1
S315600055D0A06801EB9000B042EFD80020A060686937
S315600055E040F02000686107F0010078B1686940F01A
S315600055F00100686121462846FFF76AFF206928B1E5
S31560005600002221462846D4E904C3E04707F040005B
S31560005610E8B3206801283AD1A068C0B3D5F8BC00C9
S31560005620C0F3830000F101084FEAC801A068884210
S3156000563015D3002609E06168081D6060096805F5F4
S31560005640C07040F82610701CC6B24FEA4800B042DF
S31560005650F1DC0821A06801FB1800A06013E00026B9
S3156000566009E06168081D6060096805F5C07040F86A
S315600056702610701CC6B20121A06801EB9000B042F2
S31560005680EFD80020A060686940F04000686100BF04
S3156000569067E7000000BF00BF0748806900BF00F4ED
S315600056A0006038B14FF400600349886100BF012093
S315600056B0024908707047000000801B4069000020A6
S315600056C070B50546002406E0094850F82400A84253
S315600056D000D102E0641C062CF6D300BF062C00D273
S315600056E004E04E2203A10CA001F028FF204670BD05
S315600056F058ED00002E2E5C2E2E5C6C696272617213
S315600057006965735C647269766572735C66736C5F97
S315600057106770696F2E630000696E7374616E63658E
S31560005720203C2041525241595F53495A4528735F84
S315600057306770696F42617365732900002DE9F041F6
S3156000574004460D4616462046FFF7BAFF124931F960
S3156000575010703846FEF736F860690121A940884323
S315600057606061307828B960680121A940884360602B
S3156000577009E072782946204600F056F861680120F3
S31560005780A84001436160B7783A462946204600F052
S3156000579005F800BFBDE8F08170ED0000F0B5034686
S315600057A00C462146DD690126A640B543DD61102C15
S315600057B002D203F10C0002E003F110001039062A50
S315600057C02ED2DFE802F02D030A15202705684F0068
S315600057D00326BE40B543056023E005684F000326F7
S315600057E0BE40B5434F000126BE403543056018E014
S315600057F005684F000326BE40B5434F000226BE40F3
S31560005800354305600DE005684F000326BE4035430D
S31560005810056006E0DD690126A6403543DD6100E0EE
S3156000582000BF00BFF0BD000070B504460D461646C9
S31560005830202D00D204E06E2208A111A001F07EFEA8
S315600058402EB920680121A9408843206004E02168C0
S315600058500120A8400143216070BD00002E2E5C2E01
S315600058602E5C6C69627261726965735C647269767A
S315600058706572735C66736C5F6770696F2E63000038
S3156000588070696E203C2033320000000070B504461B
S315600058900D461646324629462046FFF7C5FF70BDBF
S315600058A030B5DDE9034504B1256030BD30B5DDE9CD
S315600058B0034504B1256030BDF0B5DDE9055401F05E
S315600058C00706102707EA04173E43066002B1136015
S315600058D0F0BDF0B5DDE9055401F00706102707EACB
S315600058E004173E43066002B11360F0BDF0B585B0A3
S315600058F004460D4616461F4604B104E0F0221CA17C
S3156000590025A001F01BFE20792649087120680860F1
S3156000591008460079022826D1684600F03FFA0095CD
S31560005920204932460868694600F0B8FA1D4A0121E6
S31560005930106821B1826942F40022826103E08269C3
S3156000594022F40022826100BF164A0121106821B14B
S31560005950826942F48022826103E0826922F48022B5
S31560005960826100BF00E000BF00BF05B0F0BD00006F
S315600059702E2E5C2E2E5C6C69627261726965735C38
S315600059807574696C69746965735C696F5C66736C00
S315600059905F696F2E630000004E554C4C20213D2000
S315600059A0696F0000340000202DE9F04104460D4681
S315600059B0164600270C48007902280FD136B10A49ED
S315600059C02A460868214600F065FC06E006492A4634
S315600059D00868214600F0DCFB074601E0012700BFAE
S315600059E000BF3846BDE8F0813400002000BF0A4A97
S315600059F012690A4B02EA030100BF084601461A46CD
S31560005A000A40054B9A6100BF00F4007111B1012193
S31560005A10034A11707047000000802B40000F00029F
S31560005A203C00002010B500F025F800F057F800F0B3
S31560005A3001F810BD08B501208DF800008DF8010051
S31560005A4000208DF802006A4609210948FFF776FEB4
S31560005A506A4618210648FFF771FE6A46192104480E
S31560005A60FFF76CFE6A460A210148FFF767FE08BD2C
S31560005A7000801B401CB50020164903460246CDE94E
S31560005A80001005211448FFF724FF002011493C311E
S31560005A9003460246CDE9001005210F483C30FFF76A
S31560005AA018FF00200B49091D03460246CDE9001088
S31560005AB005210948001DFFF70CFF0020054940310C
S31560005AC003460246CDE90010052103484030FFF742
S31560005AD000FF1CBDD0821F40E0801F401CB5B02077
S31560005AE0164900231A46CDE9001005211448FFF730
S31560005AF0DDFEB02011493C3100231A46CDE9001085
S31560005B0005210F483C30FFF7D1FEB0200B494031EC
S31560005B1000231A46CDE90010052109484030FFF7F9
S31560005B20C5FEB0200549091D00231A46CDE90010BF
S31560005B3005210348001DFFF7B9FE1CBDD0821F403A
S31560005B40E0801F402DE9FC4107460C4615461E467F
S31560005B5000978DF804400023324629466846FFF7D1
S31560005B60C5FE0020BDE8FC8170B505460C460026E2
S31560005B704CB145B1012636B1012221462846FFF7D0
S31560005B8013FF00B10024204670BD000070B50446C6
S31560005B900D4604B105E040F23F1204A10DA001F0EC
S31560005BA0CDFC29462046FFF7DFFF70BD2E2E5C2E0A
S31560005BB02E5C6C69627261726965735C7574696C1E
S31560005BC069746965735C6C6F675C66736C5F6C6FD8
S31560005BD0672E630062756620213D204E554C4C0051
S31560005BE010B50121014800F013F810BD00003F40D8
S31560005BF010B50221014800F00BF810BD00403F408F
S31560005C0010B50321014800F003F810BD00803F4045
S31560005C1070B504460D46206900F0010048B10D4894
S31560005C20006830B10C4850F825102046094A1268C1
S31560005C309047D4F8100100F0010048B107480068A9
S31560005C4030B1074850F825102046044A126890473C
S31560005C5070BD000010000020940100201400002098
S31560005C60A401002010B5034841680348034A12683E
S31560005C70904710BD70010020004018400C000020C5
S31560005C8010B5034881680348034A1268904710BDFF
S31560005C9070010020008018400C00002010B50348F9
S31560005CA0C1680348034A1268904710BD700100201E
S31560005CB000C018400C00002010B503480169034875
S31560005CC0034A1268904710BD700100200000194019
S31560005CD00C00002010B5034841690348034A126866
S31560005CE0904710BD70010020004019400C00002054
S31560005CF010B5034881690348034A1268904710BD8E
S31560005D0070010020008019400C00002010B5034887
S31560005D10C1690348034A1268904710BD70010020AC
S31560005D2000C019400C00002010B50348016A034802
S31560005D30034A1268904710BD7001002000001A40A7
S31560005D400C00002070B505460C46AB6A23F4403360
S31560005D504FF4403000EA04400343AB626B6923F0C2
S31560005D60004304F0004003430B480340C14304EA88
S31560005D700100034323F4404304F4404003436B6152
S31560005D80284600F083F8204010B140F21A5600E031
S31560005D900026304670BD0000FFFFE0BF10B5044628
S31560005DA004B105E040F2E5120BA115A001F0C6FBB7
S31560005DB04FF4E1302060002020716071A071E071C5
S31560005DC020726072A072E07260732073A073E073D9
S31560005DD02074607410BD00002E2E5C2E2E5C6C69E3
S31560005DE0627261726965735C647269766572735CAE
S31560005DF066736C5F6C70756172742E630000000070
S31560005E00636F6E666967000070B50546002406E03C
S31560005E10094850F82400A84200D102E0641C092C0D
S31560005E20F6D300BF092C00D204E0902203A10DA096
S31560005E3001F084FB204670BD7CED00002E2E5C2EAA
S31560005E402E5C6C69627261726965735C6472697694
S31560005E506572735C66736C5F6C70756172742E6369
S31560005E6000000000696E7374616E6365203C2041BA
S31560005E70525241595F53495A4528735F6C70756138
S31560005E8072744261736573290000000001464869B7
S31560005E908A6A02F4430240EA124070472DE9F04FE5
S31560005EA085B004460D46914605B104E0E72284A11B
S31560005EB08DA001F043FB286800B104E0E82280A1D0
S31560005EC08BA001F03BFB287A042800DC04E0EA2280
S31560005ED07BA18DA001F032FB687A042800DC04E027
S31560005EE0EB2277A198A001F029FB286802904FF079
S31560005EF0000A00200490042731E028687843B9FB43
S31560005F00F0F01FFA80F8B8F1000F01D14FF00108E8
S31560005F1007FB08F0B9FBF0F0039029680398A0EB43
S31560005F20010B08F101007843B9FBF0F02968081A03
S31560005F3058450BD208F101007843B9FBF0F02968A7
S31560005F40A1EB000B08F101001FFA80F80298834567
S31560005F5004D8CDF808B0BA46CDF810807F1C202F43
S31560005F60CBD964212868B0FBF1F000EB40010298C0
S31560005F70814204D240F2215005B0BDE8F08F204640
S31560005F80FFF742FF01908049019831F910000090B7
S31560005F9003210098FDF7A6FB00BF00BFA06840F094
S31560005FA00200A060A06820F00200A06000BF266921
S31560005FB0BAF1030F04D9BAF1080F01D246F40036DC
S31560005FC026F0F856AAF101004FF0F85101EA006098
S31560005FD006436FF30C060498C0F30C00304320614F
S31560005FE0206920F000502061A06940F2177120EA14
S31560005FF001062879E97B4FF4E06202EA0121084351
S31560006000A97B042202EA81010843064368790128D4
S3156000601007D1287910B126F4006606E046F40066DA
S3156000602003E0287908B146F01006A661206920F4DD
S315600060300056E8794FF4005101EA40303043206160
S31560006040287A697A40EA0140E062A06A40F08800F6
S31560006050A062A06A40F44040A0624C4E46F0004602
S3156000606046F44046687B102101EA0010297B202215
S3156000607002EA41110843616A08436062A87A18B16E
S31560006080606A40F008006062E87A18B1606A40F0C1
S3156000609001006062A87910B146F0005601E026F072
S315600060A00056606930436061A669287C08B146F491
S315600060B00026687C08B146F48026A66100205BE76E
S315600060C02E2E5C2E2E5C6C69627261726965735CE1
S315600060D0647269766572735C66736C5F6C707561A9
S315600060E072742E6300000000636F6E66696700005D
S315600060F0636F6E6669672D3E626175645261746531
S315600061005F4270730000000046534C5F4645415441
S315600061105552455F4C50554152545F4649464F5F14
S3156000612053495A456E286261736529203E3D206356
S315600061306F6E6669672D3E74784669666F576174DF
S3156000614065726D61726B000046534C5F4645415403
S315600061505552455F4C50554152545F4649464F5FD4
S3156000616053495A456E286261736529203E3D206316
S315600061706F6E6669672D3E72784669666F576174A1
S3156000618065726D61726B0000B2ED000000001F4029
S315600061902DE9F04706460C46904604B105E040F20C
S315600061A0BB2230A139A001F0C9F9B76907F40060D4
S315600061B040B907F4006038B907F0100020B907F05D
S315600061C0020008B1012000E00020814642E030E094
S315600061D03046FFF75BFE054605F4002040B14FF4FC
S315600061E000213046FFF7AEFD40F21D50BDE8F08756
S315600061F005F4802038B14FF480213046FFF7A2FDC8
S3156000620040F21E50F2E705F4003038B14FF4003129
S315600062103046FFF797FD40F21F50E7E705F4803000
S3156000622038B14FF480313046FFF78CFD4FF4A460EF
S31560006230DCE7F06AC0F302600028C9D0B9F1000F4C
S3156000624005D0F06900F07F0004F8010B02E0F06908
S3156000625004F8010BB8F10000A8F10108B7D100BF3E
S31560006260C4E700002E2E5C2E2E5C6C696272617231
S315600062706965735C647269766572735C66736C5F1C
S315600062806C70756172742E630000000064617461E5
S315600062900000000070B505460C46164604B105E0E0
S315600062A04FF42B7209A113A001F048F908E000BF72
S315600062B0686900F400000028FAD014F8010BE86160
S315600062C0301EA6F10106F2D170BD00002E2E5C2EA6
S315600062D02E5C6C69627261726965735C6472697600
S315600062E06572735C66736C5F6C70756172742E63D5
S315600062F00000000064617461000000002DE9F8434D
S315600063008046894616461D4605B105E04FF49172F2
S3156000631013A119A001F012F900276B461F22494606
S31560006320404600F0C7F80746BFB9009800F01C0465
S31560006330142C01D0182C02D10120287001E0002015
S315600063402870009800F01C04082C01D0182C02D18B
S315600063500120307001E0002030703846BDE8F883D7
S315600063602E2E5C2E2E5C757365725C66736C5F7028
S3156000637068792E63000000006475706C65780000B3
S31560006380F8B506460F46144604B105E040F2091218
S315600063900BA111A001F0D2F800256B460122394607
S315600063A0304600F087F8054645B9009800F00400CD
S315600063B010B90020207001E0012020702846F8BD49
S315600063C02E2E5C2E2E5C757365725C66736C5F70C8
S315600063D068792E6300000000737461747573000041
S315600063E02DE9FC478046894617466FF07C440020BD
S315600063F0009000254046FEF78FF982462C4931F918
S315600064001A00FDF757FA002239464046FEF772FE3B
S3156000641006E06B4602224946404600F04BF8641E91
S315600064200098072801D0002CF3D114B90120BDE8EB
S31560006430FC876FF07C444FF4004300224946404697
S3156000644000F07EF8054685BB40F2E113042249461A
S31560006450404600F075F805463DBB4FF49053002268
S315600064604946404600F06CF80546F5B918E001ABC0
S3156000647001224946404600F01DF8054665B9019877
S3156000648000F0200040B1002601E000BF761C6FF0EE
S315600064907C408642F9D307E014B941F20600C6E7AC
S315600064A0201EA4F10104E2D100BF2846BFE7000028
S315600064B0DCED00002DE9F04105460F4690461E468C
S315600064C006B104E0AD2216A11BA001F037F84FF427
S315600064D000012846FEF75EF8022342463946284602
S315600064E0FEF7B6FE6FF07C4406E000BF686800F415
S315600064F0000000B102E0641E002CF6D100BF1CB99A
S3156000650041F20500BDE8F08100BF286C80B23060C2
S315600065104FF400012846FEF73DF80020F2E7000040
S315600065202E2E5C2E2E5C757365725C66736C5F7066
S3156000653068792E63000000006461746150747200B3
S315600065402DE9F84305460F4690461E464FF4000176
S315600065502846FEF71FF8012342463946284600962C
S31560006560FEF78CFE6FF07C4406E000BF686800F4BE
S31560006570000000B102E0641E002CF6D100BF1CB919
S3156000658041F20500BDE8F8834FF400012846FEF7A6
S3156000659001F80020F6E7000010B50023244C2360C4
S315600065A000BF00BF00BFBFF34F8F00BF00BF00BF7B
S315600065B01F4B703B1B6823F480331D4C703C23607B
S315600065C000BF00BF00BFBFF34F8F00BF00BF00BF5B
S315600065D0174B1B1F1868C0F34E3100BFC0F3C902CA
S315600065E000BF43F6E07303EA41134FF0404404EA08
S315600065F0827423430F4C236000BF00BF131EA2F1B9
S315600066000102EED10B1EA1F10101E7D100BF00BF6F
S3156000661000BFBFF34F8F00BF00BF00BF00BF00BF0A
S3156000662000BFBFF36F8F00BF00BF00BF10BD00008B
S3156000663084ED00E074EF00E010B50023234C236086
S3156000664000BF00BF00BFBFF34F8F00BF00BF00BFDA
S31560006650231F1868C0F34E3100BFC0F3C90200BFE4
S3156000666043F6E07303EA41134FF0404404EA827450
S315600066702343174C236000BF00BF131EA2F1010223
S31560006680EED10B1EA1F10101E7D100BF00BF00BF33
S31560006690BFF34F8F00BF00BF00BF0C4B703B1B6842
S315600066A043F48033094C703C236000BF00BF00BFD9
S315600066B0BFF34F8F00BF00BF00BF00BF00BF00BF6A
S315600066C0BFF36F8F00BF00BF00BF10BD84ED00E059
S315600066D060EF00E000BF00BF00BFBFF34F8F00BF99
S315600066E000BF00BF00BF00BF00BFBFF36F8F00BF1A
S315600066F000BF00BF00201449086000BF00BF00BF94
S31560006700BFF34F8F00BF00BF00BF00BF00BF00BF19
S31560006710BFF36F8F00BF00BF00BF0C48006840F436
S3156000672000300A49086000BF00BF00BFBFF34F8F4B
S3156000673000BF00BF00BF00BF00BF00BFBFF36F8FC9
S3156000674000BF00BF00BF704750EF00E014ED00E0EF
S315600067502DE9F0410024002500270026A0462DA043
S31560006760FDF792FE00BF04E0002104F100400170D5
S31560006770641CB4F1007FF7D3002405E02819C1B288
S3156000678004F100400170641CB4F1007FF6D300246C
S315600067900DE004F1004007782819C0B2B84205D070
S315600067A02BA0FDF771FE0020BDE8F081641CB4F1FA
S315600067B0007FEED3002405E00021600000F1004078
S315600067C00180641CB4F1807FF6D3002406E03019A2
S315600067D081B2600000F100400180641CB4F1807FEA
S315600067E0F5D300240EE0600000F10040B0F80080B0
S315600067F0301980B2404504D01BA0FDF745FE00204D
S31560006800D2E7641CB4F1807FEDD31DA0FDF73CFE9A
S315600068100120C9E70D0A20D5FDD4DABCECB2E2D579
S31560006820FBC6AC534452414DA3ACD2D438CEBBA1C7
S31560006830A23136CEBBB5C4B7BDCABDB6C1D0B4D51C
S31560006840FBC6AC534452414D2E2E2E0D0A0000005D
S315600068500D0A2038CEBBCAFDBEDDB6C1D0B4B4EDDC
S31560006860CEF3A3A10D0A00000D0A203136CEBBCAB5
S31560006870FDBEDDB6C1D0B4B4EDCEF3A3A10D0A0062
S315600068800D0A20534452414DD5FBC6ACB6C1D0B4B7
S31560006890B2E2CAD4D5FDB3A3A3A10D0A00000000DD
S315600068A02DE9F0414FF48055EE0401272A46314622
S315600068B025A0FDF7E9FDA9003348FCF768F8A900B3
S315600068C03248FCF764F800240EE04FF6FF70B4FB24
S315600068D0F0F100FB11402C4941F82400084630F8DD
S315600068E0240026F81400641CAC42EED32A463146D6
S315600068F027A0FDF7C9FD002405E036F814002349FA
S3156000690041F82400641CAC42F7D331A0FDF7BCFD0E
S3156000691009E01D4850F825001C4951F825108842A9
S3156000692001D0002703E0281EA5F10105F1D100BFC3
S315600069301FB92EA0FDF7A8FD02E038A0FDF7A4FD63
S315600069403846BDE8F08100000D0A20CAB9D3C331CC
S3156000695036CEBBB5C4B7BDCABDCFF2534452414D66
S31560006960D0B4C8EB2C20C6F0CABCB5D8D6B7A3BA8B
S31560006970307825782C20D0B4C8EBB3A4B6C8A3BAB7
S315600069802564200D0A000000C0010020C0410020DF
S315600069900D0A20CAB9D3C33136CEBBB5C4B7BDCA9A
S315600069A0BDCFF2B6C1C8A1534452414D2C20C6F0AA
S315600069B0CABCB5D8D6B7A3BA307825782C20D0B45F
S315600069C0C8EBB3A4B6C8A3BA2564200D0A000000BC
S315600069D00D0A20BFAACABCB1C8BDCFB6C1D0B4B576
S315600069E0C4C4DAC8DD2E2E2E0D0A00000D0A20B4AE
S315600069F0EDCEF3A3A1CAB9D3C33136CEBBB6C1D0EF
S31560006A00B4534452414DB5C4B1C8BDCFBDE1B9FB25
S31560006A10B2BBD2BBD6C2210D0A0000000D0A20B35C
S31560006A20C9B9A6A3A1CAB9D3C33136CEBBB6C1D044
S31560006A30B4534452414DB5C4B1C8BDCFBDE1B9FBF5
S31560006A40D2BBD6C20D0A00002DE9F0414FF4805545
S31560006A50EE0401272A4631461DA0FDF715FD0024E8
S31560006A6007E02B4840F8244050F8240046F82400FC
S31560006A70641CAC42F5D32A46314626A0FDF704FDD8
S31560006A80002405E056F82400324941F82400641CCD
S31560006A90AC42F7D330A0FDF7F7FC09E01C4850F88C
S31560006AA025002C4951F82510884201D0002703E0C3
S31560006AB0281EA5F10105F1D100BF1FB92DA0FDF774
S31560006AC0E3FC02E037A0FDF7DFFC3846BDE8F08165
S31560006AD00D0A20CAB9D3C33332CEBBB5C4B7BDCA5B
S31560006AE0BDCFF2534452414DD0B4C8EB2C20C6F012
S31560006AF0CABCB5D8D6B7A3BA307825782C20D0B41E
S31560006B00C8EBB3A4B6C8A3BA2564200D0A0000007A
S31560006B10C00100200D0A20CAB9D3C33332CEBBB53B
S31560006B20C4B7BDCABDCFF2B6C1C8A1534452414D28
S31560006B302C20C6F0CABCB5D8D6B7A3BA30782578AB
S31560006B402C20D0B4C8EBB3A4B6C8A3BA2564200D74
S31560006B500A000000C04100200D0A20BFAACABCB1CD
S31560006B60C8BDCFB6C1D0B4B5C4C4DAC8DD2E2E2E2A
S31560006B700D0A00000D0A20B4EDCEF3A3A1CAB9D365
S31560006B80C33332CEBBB6C1D0B4534452414DB5C403
S31560006B90B1C8BDCFBDE1B9FBB2BBD2BBD6C20D0A8F
S31560006BA0000000000D0A20B3C9B9A6A3A1CAB9D3D3
S31560006BB0C33332CEBBB6C1D0B4534452414DB5C4D3
S31560006BC0B1C8BDCFBDE1B9FBD2BBD6C20D0A0000CC
S31560006BD02DE9F0414FF48055EE0401272A463146EF
S31560006BE021A0FDF751FCA9002F48FBF7D0FEA900B4
S31560006BF02E48FBF7CCFE002408E0E0B22A4941F8B3
S31560006C002400084610F824003055641CAC42F4D3C6
S31560006C102A46314626A0FDF737FC002404E0305DA5
S31560006C20224941F82400641CAC42F8D330A0FDF739
S31560006C302BFC09E01C4850F825001C4951F825102A
S31560006C40884201D0002703E0281EA5F10105F1D195
S31560006C5000BF1FB92DA0FDF717FC02E037A0FDF7B6
S31560006C6013FC3846BDE8F0810D0A20CAB9D3C33893
S31560006C70CEBBB5C4B7BDCABDCFF2534452414DD0A9
S31560006C80B4C8EB2C20C6F0CABCB5D8D6B7A3BA3008
S31560006C907825782C20D0B4C8EBB3A4B6C8A3BA259F
S31560006CA064200D0A00000000C0010020C0410020E1
S31560006CB00D0A20CAB9D3C338CEBBB5C4B7BDCABDE9
S31560006CC0CFF2B6C1C8A1534452414D2C20C6F0CA7A
S31560006CD0BCB5D8D6B7A3BA307825782C20D0B4C83E
S31560006CE0EBB3A4B6C8A3BA2564200D0A0000000061
S31560006CF00D0A20BFAACABCB1C8BDCFB6C1D0B4B553
S31560006D00C4C4DAC8DD2E2E2E0D0A00000D0A20B48A
S31560006D10EDCEF3A3A1CAB9D3C338CEBBB6C1D0B446
S31560006D20534452414DB5C4B1C8BDCFBDE1B9FBB204
S31560006D30BBD2BBD6C2210D0A000000000D0A20B3EB
S31560006D40C9B9A6A3A1CAB9D3C338CEBBB6C1D0B49C
S31560006D50534452414DB5C4B1C8BDCFBDE1B9FBD2B4
S31560006D60BBD6C20D0A00000010B5FFF76DFE0446E3
S31560006D700CB9204610BDFFF793FD04460CB92046BA
S31560006D80F8E7FFF725FF04462046F3E72DE9FF4FB6
S31560006D909BB01E460020119000270F900B90069026
S31560006DA00790DDF86C80FCE2252C05D0E2B2012369
S31560006DB00FA91D98B047F2E201200C900025002033
S31560006DC0109025E008F10100804600782B280DD050
S31560006DD004DC20280DD0232814D110E02D2802D001
S31560006DE030280FD108E045F0010510E045F00205B6
S31560006DF00DE045F004050AE045F0080507E045F0BA
S31560006E00100504E0A8F101080120109000BF00BF42
S31560006E1010980028D6D04FF000090020109019E095
S31560006E2008F1010080460478302C08DB392C06DC3A
S31560006E30A4F1300009EB890100EB41090AE02A2C34
S31560006E4004D11C9850F8049B1C9003E0A8F101083B
S31560006E500120109010980028E2D006200E900020A5
S31560006E60059008F10100804600782E2829D100207F
S31560006E700E90109021E008F1010080460478302CD5
S31560006E800CDB392C0ADCA4F130000E9901EB810190
S31560006E9000EB41000E90012005900EE02A2C08D1EF
S31560006EA01C9800680E901C98001D1C90012005908F
